:100000000C9481030C94D11B0C94FE1B0C947A214C
:100010000C949E210C94C2210C94A9030C94A90366
:100020000C94A9030C94A9030C94A9030C94A903A0
:100030000C94A9030C94A9030C94A9030C94A90390
:100040000C942B1C0C94A9030C944C1E0C948F1E26
:100050000C94A9030C94A9030C94A9030C94A90370
:100060000C94DA290C94A90338184B1865187818E1
:100070008F18BB18C318CB18D318DA18DA18DA1887
:10008000DA18DA18DA18DA18DA18DA18DA18DA18E0
:10009000DA18DA18DA18DA18DA18DA18DA18DA18D0
:1000A000DA18DA18DA18DA18381844184B186518FC
:1000B00078188F18A218AA18B218084AD73B3BCE56
:1000C000016E84BCBFFDC12F3D6C74319ABD568357
:1000D0003DDA3D00C77F11BED9E4BB4C3E916BAA0F
:1000E000AABE000000803F05A84CCDB2D44EB9385E
:1000F00036A9020C50B9918688083CA6AAAA2ABE45
:10010000000000803F002075532F68002075532F9A
:100110006800206D532F68002043504D006B435002
:100120004D002530356C642E2530346C640025304C
:10013000346C642E2530346C640024504D544B31A3
:1001400030342A3337004E4F205344204341524429
:100150002F20475053207265736574002530326438
:100160002F2530326420253032643A253032643A0B
:10017000253032640057726F6E67206D6F646520A2
:10018000210075530044733D0075532F6820004DC6
:10019000783D0042712F6D32006B42712F6D32003D
:1001A0006D42712F6D320043504D20006B43504D16
:1001B00020002D2D006B6D002042712F6D3200202C
:1001C0007553762F68005E004E6F20475053002510
:1001D00030326468253032646D002A2558002A3098
:1001E0002558002425732C253034642C25303264A6
:1001F0002D253032642D2530326454253032643A56
:10020000253032643A253032645A2C256C642C2512
:100210006C642C256C642C25632C25732C25632C95
:1002200025732C25632C25732C25632C25642C2504
:100230006C64002530346425303264253032642EFD
:100240006C6F67006E616E6F0A2320646561647471
:10025000696D653D6F6E0A00312E332E3600232006
:100260004E4557204C4F470A2320666F726D6174CC
:100270003D0024504D544B3330312C322A3245004E
:1002800024504D544B3331332C312A324500245005
:100290004D544B3232302C313030302A314600242C
:1002A000504D544B3331342C302C312C302C312CDC
:1002B000302C302C302C302C302C302C302C302C5E
:1002C000302C302C302C302C302C302C302A323842
:1002D0000024504D544B3235312C393630302A31D0
:1002E00037002325303464004D6F6465203D25645C
:1002F0000043504D00416C61726D3D256400252521
:1003000000426174746572793D2025303264004783
:100310006569676965204E616E6F2025730072659F
:1003200061642025732030202564004A504E00006F
:1003300000000700020100000304060000000000A6
:10034000000000010204081020408001020408108F
:10035000200102040810200404040404040404021C
:10036000020202020203030303030300000000234E
:10037000002600290000000000250028002B0000B6
:10038000000000240027002A0000C201000100052F
:10039000000500030000E1000001000F000F000D48
:1003A0000000960000020019001A001700127A00DF
:1003B000000700200021001D00807000000B0023BA
:1003C0000023002000004B000014003700370034E9
:1003D00000403800001E004B004B00480080250004
:1003E000003200720072007000C01200006E00E95E
:1003F00000E900E60060090000E500D801D801D559
:1004000001B0040000D301B403B403B103580200E7
:1004100000B4036707670762072C0100006707DD68
:100420000EDD0EDA0E000000000000005F0000008C
:1004300007000700147F147F14242A7F2A12231335
:1004400008646236495620500008070300001C2249
:1004500041000041221C002A1C7F1C2A08083E087B
:10046000080080703000080808080800006060007C
:1004700020100804023E5149453E00427F40007270
:10048000494949462141494D331814127F102745E7
:100490004545393C4A494931412111090736494905
:1004A0004936464949291E00001400000040340026
:1004B00000000814224114141414140041221408DA
:1004C00002015909063E415D594E7C1211127C7F92
:1004D000494949363E414141227F4141413E7F49A0
:1004E0004949417F090909013E414151737F08088B
:1004F000087F00417F41002040413F017F081422D6
:10050000417F404040407F021C027F7F0408107FF3
:100510003E4141413E7F090909063E4151215E7F2E
:1005200009192946264949493203017F01033F4001
:1005300040403F1F2040201F3F4038403F63140889
:10054000146303047804036159494D43007F41411A
:10055000410204081020004141417F0402010204CD
:100560004040404040000307080020545478407F3A
:10057000284444383844444428384444287F385474
:1005800054541800087E090218A4A49C787F08041B
:10059000047800447D40002040403D007F10284406
:1005A0000000417F40007C047804787C08040478D3
:1005B0003844444438FC1824241818242418FC7C9B
:1005C00008040408485454542404043F44243C4080
:1005D00040207C1C2040201C3C4030403C442810E3
:1005E00028444C9090907C4464544C44000836411C
:1005F00000000077000000413608000201020402FA
:1006000000407A10F35A00A0724E18090010A5D4C9
:10061000E80000E87648170000E40B54020000CA26
:100620009A3B000000E1F50500008096980000006C
:1006300040420F000000A0860100000010270000CB
:100640000000E803000000006400000000000A0051
:10065000000000000100000000002C76D888DC6754
:100660004F0823DFC1DFAE59E1B1B796E5E3E453AC
:10067000C63AE651997696E8E6C28426EB898C9BC9
:1006800062ED407C6FFCEFBC9C9F40F2BAA56FA569
:10069000F490055A2AF75C936B6CF9676DC11BFCEB
:1006A000E0E40D47FEF520E6B500D0ED902E030006
:1006B000943577050080841E080000204E0A000053
:1006C00000C80C333333330F986E12831141EF8D12
:1006D0002114893BE65516CFFEE6DB18D1844B3852
:1006E0001BF77C1D901DA4BBE424203284725E2283
:1006F0008100C9F124ECA1E53D277805451F3B2980
:10070000AD0511241FBECFEFD8E0DEBFCDBF13E093
:10071000A0E0B1E0E0E7F9E602C005900D92A43F49
:10072000B107D9F728E0A4EFB3E001C01D92A133CF
:10073000B207E1F716E0C0E0D7E004C02297FE015F
:100740000E94A52ECA3FD107C9F70E9405200C942C
:10075000AB340C9400008EE00E94081DBC01882779
:1007600077FD8095982F0E94702C20E030E040E8C3
:100770005AE30E94892D20E030E040E251E40E94DB
:10078000892D24EB35EC4AEC5DE30E94D52B0895CE
:10079000A0E0B0E0EEECF3E00C94C32E982E6A01DA
:1007A0007B01B22EA32ECB01BA0120EA36E841E04C
:1007B00050E00E94812EE901142F052F60EA76E8AF
:1007C00081E090E00E945D2EA7019601261B370B69
:1007D000480B590BCA01B9012AE030E040E050E073
:1007E0000E94812E9920D1F05F934F933F932F93D6
:1007F0000F931F93DF93CF938EE291E09F938F939C
:10080000AF92BF920E94A52F4DB75EB7445F5F4F76
:100810000FB6F8945EBF0FBE4DBF18C05F934F93E5
:100820003F932F930F931F93DF93CF9382E291E037
:100830009F938F93AF92BF920E94A52F8DB79EB7C3
:100840000C960FB6F8949EBF0FBE8DBFCDB7DEB726
:10085000EBE00C94DF2E8F929F92AF92BF92CF92DB
:10086000DF92EF92FF920E946E2C20E836E948E179
:100870005BE40E94D52B4B015C010E943D2C882734
:1008800077FD8095982F0E94702C6B017C019B0155
:10089000AC01C501B4010E94072B20E030E040E725
:1008A00052E40E94D52B20E030E048EC52E40E9454
:1008B000892DA70196010E94082BFF90EF90DF90F1
:1008C000CF90BF90AF909F908F900895A0E0B0E040
:1008D000ECE6F4E00C94C62E6B017C01142FA90108
:1008E00060E070E08EEF95E00E94882562E08EEF78
:1008F00095E00E948E2580910701863549F441E0FC
:1009000050E060E070E08EEF95E00E949A2506C00E
:1009100061E070E08EEF95E00E949425CAEFD4E08C
:1009200080E2FE0111928A95E9F7C701B601112311
:1009300009F444C0F0E1CF16F7E2DF06E104F10468
:1009400028F10E946E2C20E030E04AE754E40E9437
:10095000D52B0AE115E023E044E00E94162F44E085
:1009600050E0B801CE010E946C2F09900020E9F7F9
:10097000229788818E3209F418826AEF74E08EEF34
:1009800095E00E94D41F8DE191E09BC00E946E2CE7
:100990000AE115E020E040E00E94162FB8018EEF3A
:1009A00095E00E94D41F88E191E09F938F93C80146
:1009B0009F930F930E94A52FB8018DC00E946E2CAB
:1009C0002091210430912204409123045091240469
:1009D0000E94D52B6B017C0120E030E04AE754E413
:1009E0000E947E2D87FD26C020E030E04AE754E4D7
:1009F000C701B6010E94D52B0AE115E022E044E0D0
:100A00000E94162F45E050E0B8018AEF94E00E9462
:100A10006C2F09900020E9F7229788818E3209F423
:100A200018826AEF74E08EEF95E00E94D41F82E195
:100A300091E047C020E030E040E251E4C701B60158
:100A40000E947E2D0AE115E087FD1EC022E044E0F1
:100A5000C701B6010E94162F45E050E0B8018AEFA9
:100A600094E00E946C2F09900020E9F7229788817A
:100A70008E3209F418826AEF74E08EEF95E00E94DE
:100A8000D41F8CE091E01DC023E044E0C701B60113
:100A90000E94162F46E050E0B8018AEF94E00E94D1
:100AA0006C2F09900020E9F7229788818E3209F493
:100AB00018826AEF74E08EEF95E00E94D41F86E002
:100AC00091E09F938F938AE195E09F938F930E948B
:100AD000A52F6AE175E08EEF95E00E94D41F0F907C
:100AE0000F900F900F90CDB7DEB7E8E00C94E22E98
:100AF000EF92FF920F931F938CE0E82E0DE02BE016
:100B00004AE069E08EEF95E00E94472620E045E04C
:100B100066E08EED94E00E94342261E089E694E084
:100B20000E94421520E047E068E08DE494E00E94D6
:100B3000342294E6E92EF12C0AE315E020E034E0BB
:100B400048E054E06EED74E086EF93E00E94ED1112
:100B50001F910F91FF90EF9008958DE494E00E9413
:100B600036238EED94E00E94362308951F93CF9391
:100B7000DF93182FC0E0D0E021968EED94E00E9424
:100B80004B20892B51F46AE070E080E090E00E94F5
:100B9000A41CC83CD10581F712C08EED94E00E94E0
:100BA0001220112319F02EE330E002C02CE330E0D4
:100BB0008217930741F781E0C83CD10509F480E032
:100BC000DF91CF911F9108950F931F93CF93DF93E0
:100BD00061E082E10E944E1D60E083E10E944E1DB3
:100BE00040E855E260E070E082E496E00E94CA1EB0
:100BF00086EF93E00E94401240E855E260E070E02A
:100C00008EED94E00E94642261E084E00E944E1D1B
:100C10008EED94E00E94852060E084E00E94871DB4
:100C200064E670E080E090E00E94A41C61E084E053
:100C30000E94871D81E00E94B605811104C081E0F9
:100C40008093E40503C081E08093DD048091DD049E
:100C5000882331F06AE073E086EF93E00E94C312CC
:100C600048E853E160E070E080E090E00E9471119C
:100C70000E948C1140E855E260E070E08DE494E061
:100C80000E946422CAE3D5E014E6FE01812F11928E
:100C90008A95E9F781ED92E09F938F93DF93CF934D
:100CA0000E94A52FBE018DE494E00E94F31FFE0177
:100CB000812F11928A95E9F78FE992E09F938F93A4
:100CC000DF93CF930E94A52FBE018DE494E00E9494
:100CD000F31FFE01812F11928A95E9F78EE892E0C9
:100CE0009F938F93DF93CF930E94A52FBE018DE436
:100CF00094E00E94F31FFE01812F11928A95E9F77B
:100D000080E892E09F938F93DF93CF930E94A52F6B
:100D1000BE018DE494E00E94F31FFE0111921A952A
:100D2000E9F782E792E09F938F93DF93CF930E943E
:100D3000A52FBE018DE494E00E94F31F8DE494E0A2
:100D40000E948520C0E0D4E0EDB7FEB774960FB6E0
:100D5000F894FEBF0FBEEDBF68EC70E08B010F5F33
:100D60001F4F80E797E00E943E238993003D1105C5
:100D700011F0B801F3CF83E00E94051D4CE362E05F
:100D80008EEF95E00E94C8268EEF95E00E94DB274B
:100D900068EE73E080E090E00E94A41C8EEF95E086
:100DA0000E94582661E070E08EEF95E00E94942545
:100DB00061E08EEF95E00E948E2587E193E09F939E
:100DC0008F938FE093E09F938F93CAE1D5E0DF93F9
:100DD000CF930E94A52F09900020E9F7CA51D54072
:100DE00026E02C9FC0012D9F900D112460E870E03B
:100DF000681B790B7695679540E050E08EEF95E0A3
:100E00000E9488250F900F900F900F900F900F90D9
:100E100080910C04811103C06DE173E002C06FE1A9
:100E200073E08EEF95E00E94D41F6AE175E08EEFCB
:100E300095E00E94D41F48E050E068E070E08EEF3B
:100E400095E00E9488250E94AB0320E030E040EF4F
:100E500051E40E94072B20E030E048E451E40E9476
:100E6000892D0E943D2C6C5E7F4F77FD06C0653654
:100E700071052CF064E670E002C061E070E07F93E1
:100E80006F9381E093E09F938F93CAE1D5E0DF9366
:100E9000CF930E94A52FBE018EEF95E00E94D41F34
:100EA0008EEF92E09F938F93DF93CF930E94A52FB5
:100EB000BE018EEF95E00E94D41F40E150E067E351
:100EC00070E08EEF95E00E94882580912A048F9330
:100ED000809129048F9385EF92E09F938F93DF9306
:100EE000CF930E94A52FBE018EEF95E00E94D41FE4
:100EF00081EF92E09F938F93DF93CF930E94A52F72
:100F0000BE018EEF95E00E94D41F40E150E068E002
:100F100070E08EEF95E00E948825809134041F9246
:100F20008F9388EE92E09F938F93DF93CF930E94ED
:100F3000A52FBE018EEF95E00E94D41F61E08EEFD9
:100F400095E00E948E2548E050E065E570E08EEF68
:100F500095E00E94882580911F048F9380911E0444
:100F60008F9382EE92E09F938F93DF93CF930E94B3
:100F7000A52FEDB7FEB7B0960FB6F894FEBF0FBE23
:100F8000EDBFBE018EEF95E00E94D41F61E08EEFB1
:100F900095E00E948E2580910E048823F9F0EEE002
:100FA000F4E001900020E9F7EF50F44026E02E9F96
:100FB000C0012F9F900D112460E870E0681B790B31
:100FC0007695679548E150E08EEF95E00E94882580
:100FD0006EE074E08EEF95E00E94D41F8EEF95E0F6
:100FE0000E94DB2768E273E280E090E00E94A41C8C
:100FF000DF91CF911F910F910895A1E2B0E0E3E05E
:10100000F8E00C94BC2E83E10E94081D853F9140BE
:101010001CF010920C0407C081E080930C0460E087
:1010200082E10E94871D0E94AB0320E030E040EF88
:1010300051E40E94072B0E943D2C161617064CF017
:1010400068EE73E080E090E00E94A41C81E0809351
:101050000C048DE494E00E9485200E94751C6B01B5
:101060007C010E94751C97018601061B170B280B3B
:10107000390BC616D706E806F90618F0D901C801DB
:1010800006C0D901C80180959095A095B095883E7D
:101090009340A105B105A0F40E949F11892B81F412
:1010A0008DE494E00E944B20892BD9F28DE494E0EA
:1010B0000E941220682F89E694E00E94E318F0CF86
:1010C0000E949F11892B11F40C9459110E94E41174
:1010D0006D8B7E8B8F8B988F0E948C118091B005C9
:1010E0009091B105A091B205B091B305FC01EE0F4E
:1010F000FF1FEE0FFF1FEC54FA4F2D893E894F89D9
:10110000588D2083318342835383BC01CD016F5FAF
:101110007F4F8F4F9F4F2CE030E040E050E00E9427
:10112000812E6093B0057093B1058093B2059093C2
:10113000B305E4EBF5E060E070E0CB0101911191C3
:1011400021913191600F711F821F931F35E0E43EA2
:10115000F307A1F70E946E2C6B017C0122EB35ECAA
:101160004CEF55E30E94892D9B01AC0160E070E0DB
:1011700080E89FE30E94072B9B01AC01C701B601E9
:101180000E94D52B0E94422C2B013C018091AC0582
:101190009091AD05A091AE05B091AF052D893E8926
:1011A0004F89588D820F931FA41FB51F8093AC05E4
:1011B0009093AD05A093AE05B093AF058091A405C3
:1011C0009091A505A091A605B091A7050596A11D32
:1011D000B11D8093A4059093A505A093A605B09397
:1011E000A7058091A8059091A905A091AA05B091A5
:1011F000AB0584159505A605B70540F44092A805F2
:101200005092A9056092AA057092AB0580910004E6
:1012100090910104A0910204B09103042D893E89AC
:101220004F89588D820F931FA41FB51F8093000410
:1012300090930104A0930204B0930304609104040A
:101240007091050480910604909107046B5F7F4FB5
:101250008F4F9F4F6093040470930504809306049E
:101260009093070420E13EE040E050E00E94812E90
:10127000672B682B692B81F080919E0590919F05CB
:101280008C309105F4F426E52093070101969093A4
:101290009F0580939E051FC000E014E068EC70E09D
:1012A000D8014D918D017B01BFEFEB1AFB0A80E75E
:1012B00097E00E944223E0EDEE16F104E9F2B70157
:1012C000EFCF411451046104710411F486E501C0AB
:1012D00081E4809307018091E4058111ADC0809184
:1012E0000601813409F0A8C08DED97E09E838D83BF
:1012F0001A8A198A188A1F861D8619869E012F5FF1
:101300003F4F4901AE01475F5F4F5A01CE010D9635
:101310006C01DE011F967D018E01005F1F4F205F73
:101320003F4F475F5F4FBE016B5F7F4F89E694E0A1
:101330000E94B21A89819A81AB81BC818F3F9F4FF5
:10134000AF4FBF4F09F478C089891F928F938A8964
:101350001F928F9380911F048F9380911E048F930F
:1013600083E392E09F938F9385EE95E09F938F9315
:101370000E94A52F0FB6F894DEBF0FBECDBF81E04F
:101380008093E4058EED94E00E94852061E273E095
:101390008EED94E00E94D41F65EE75E08EED94E032
:1013A0000E94D41F6DE08EED94E00E940C2180E03D
:1013B0000E94B605811112C060E084E00E94871D82
:1013C00064E670E080E090E00E94A41C61E084E0AC
:1013D0000E94871D81E00E94B605D8CF8EE592E07D
:1013E0009F938F930AE115E01F930F930E94A52FFF
:1013F000B8018EED94E00E94D41F88E592E09F939F
:101400008F931F930F930E94A52FB8018EED94E048
:101410000E94D41F84E492E09F938F931F930F93B5
:101420000E94A52FB8018EED94E00E94D41F0FB644
:10143000F894DEBF0FBECDBF84E6EAE3F5E0DF013E
:101440001D928A95E9F78DED97E09E878D871C8A1E
:101450001B8A1A8A198A188A1F8619861A861B8679
:101460001C861D821E821F8218868CE0E1E4F4E057
:10147000DF01282F1D922A95E9F7E5E3F4E0DF016B
:101480001D928A95E9F780E2EAE1F5E0DF011D921D
:101490008A95E9F7FE0131964F019E01215F3F4F8A
:1014A0005901AE01405F5F4F6A01CE0141967C0158
:1014B0008E010E5E1F4F2C5F3F4F4C5F5F4FBE0192
:1014C000635F7F4F89E694E00E94B21A89819A8116
:1014D000AB81BC818F3F9F4FAF4FBF4F51F48CED1D
:1014E00097E09E878D871C8A1B8A1A8A198A188A18
:1014F0001F869E012F5F3F4FAE014B5F5F4FBE01C6
:10150000675F7F4F89E694E00E94221A8091D104A0
:10151000811102C086E501C081E48093060189E65D
:1015200094E00E94591B6F8F78A31C0189E694E018
:101530000E948F1B6B017C012091A9043091AA04A9
:101540003E8F2D8F8090A1049090A204A090A304C0
:10155000B090A40489859A85AB85BC85B7FF0EC081
:10156000B095A095909581959F4FAF4FBF4F8987BC
:101570009A87AB87BC8733E539A302C04EE449A301
:101580008D819E81AF81B885B7FF0EC0B095A095C3
:10159000909581959F4FAF4FBF4F8D839E83AF83B3
:1015A000B88757E5598F02C085E4898F89859A8568
:1015B000AB85BC858F3FE9EC9E07EAE9AE07EBE31C
:1015C000BE0719F0AC01BD0104C040E050E060E08E
:1015D00070E021E434E081E00E94C8038D819E81A7
:1015E000AF81B8858F3FF9EC9F07FAE9AF07FBE3BE
:1015F000BF0719F0AC01BD0104C040E050E060E05D
:1016000070E025E334E080E00E94C8032091AA0343
:101610003091AB034091AC035091AD036F8D78A135
:10162000C1010E94CE2B811105C0F0E0E0E050E046
:1016300030E004C0FF8DE8A1522D332D0AE115E002
:1016400022E040E06F2F7E2F852F932F0E94162FD0
:1016500084E6EAE3F5E0DF011D928A95E9F7BFEF42
:101660008B169B06AB06BB0629F420E030E040E079
:1016700050E002C09401A501ED8DFE8DEF3FF10514
:1016800019F480E090E002C08D8D9E8D5F934F93A2
:101690003F932F939F938F93809106011F928F9377
:1016A0008AE195E09F938F931F92F98DFF9385E3D5
:1016B00094E09F938F931F9229A12F9381E494E04C
:1016C0009F938F93809107011F928F938091AF0515
:1016D0008F938091AE058F938091AD058F9380910C
:1016E000AC058F93388D3F934F894F935E895F93FD
:1016F0008D898F937F926F925F924F9288891F920C
:101700008F9389891F928F938A891F928F938B89D8
:101710001F928F938C891F928F938E858F938D85C7
:101720008F9380911F048F9380911E048F9389E281
:1017300093E09F938F9383EE91E09F938F930AE3BF
:1017400015E01F930F930E94A52FF8010190002030
:10175000E9F73197EA53F540FF278F01065C1A4FEE
:10176000D8011C9260913B058CE395E00FB6F8948C
:10177000DEBF0FBECDBF2FEF3FEF2A533540A9018B
:10178000480F591F4E175F072CF4DC014D91CD0116
:101790006427F5CF603128F41F926F938EED91E0AE
:1017A00004C01F926F938AED91E09F938F931F93D4
:1017B0000F930E94A52F0F900F900F900F900F90F6
:1017C0000F908091D104882309F4AFC069857A8590
:1017D0008B859C850E942B046D8B7E8B8F8B988FC5
:1017E0006D817E818F8198850E942B04698F7A8F0D
:1017F0008B8F9C8F20E030E040EA50E4C701B601B7
:101800000E947E2D181624F0B9E18B2E912C03C076
:10181000A5E08A2E912C20E030E040E251E4C7019F
:10182000B6010E947E2D18161CF4FAE08F2E912C22
:1018300020E030E040E751E4C701B6010E947E2D70
:1018400018161CF4E4E18E2E912C80910801882357
:10185000D9F02D893E894F89588D2093F605309314
:10186000F7054093F8055093F905898D9A8DAB8D56
:10187000BC8D8093FA059093FB05A093FC05B09373
:10188000FD051092080151C0A090FA05B090FB052B
:10189000C090FC05D090FD05E090F605F090F705AE
:1018A0000091F8051091F905298D3A8D4B8D5C8DCD
:1018B0006D897E898F89988D0E9460190E943D2CC8
:1018C000AA2497FCA094BA2C86169706A806B906F7
:1018D00060F50091F2051091F3052091F405309127
:1018E000F505060F171F281F391F0093F2051093E7
:1018F000F3052093F4053093F5052D893E894F8932
:10190000588D2093F6053093F7054093F8055093D2
:10191000F905898D9A8DAB8DBC8D8093FA059093D6
:10192000FB05A093FC05B093FD058EEF95E00E94AA
:10193000582680910C048111B9C1C090A405D090A3
:10194000A505E090A605F090A705C701B60120E126
:101950003EE040E050E00E94812E2D8B3E8B4F8B6D
:10196000588F3093A3052093A20524EC4D895E89FE
:1019700024034001259F900C1124C701B6012CE3DC
:1019800030E040E050E00E94812E820E931E909243
:10199000A1058092A0059F928F925E895F938D89A9
:1019A0008F938FEC91E09F938F938AE195E09F93C3
:1019B0008F930E94A52F48E150E06CE570E08EEF18
:1019C00095E00E94882561E08EEF95E00E948E25CB
:1019D00061E070E08EEF95E00E9494256AE175E089
:1019E0008EEF95E00E94F31F0FB6F894DEBF0FBE96
:1019F000CDBF80910701813421F48091D104811100
:101A000051C460E082E10E94871D20E030E041E0A7
:101A1000C301B2010E94660461E070E08EEF95E0C0
:101A20000E94942561E08EEF95E00E948E258091C2
:101A3000D104811125C048E050E06CE570E08EEFE4
:101A400095E00E94882541E050E060E070E08EEF74
:101A500095E00E949A2588EC91E09F938F938AE10C
:101A600095E09F938F930E94A52F6AE175E08EEF1A
:101A700095E00E94F31F0F900F900F900F9033C0CE
:101A800061E070E08EEF95E00E94942548E050E020
:101A90006EE670E08EEF95E00E948825BE8DBF93C4
:101AA000ED8DEF938FE293E09F938F930AE115E022
:101AB0001F930F930E94832FB8018EEF95E00E9431
:101AC000D41F86EC91E09F938F931F930F930E94F6
:101AD000A52FB8018EEF95E00E94F31F0FB6F89482
:101AE000DEBF0FBECDBF61E070E08EEF95E00E94DB
:101AF000942540E150E060E070E08EEF95E00E94B8
:101B0000882580910D0481111CC0C301B2010E947F
:101B10006E2C209121043091220440912304509195
:101B200024040E94D52B0AE115E023E040E00E9446
:101B3000162FB8018EEF95E00E94D41F8FEB91E035
:101B40001DC0813059F5C301B2010E946E2C209155
:101B500025043091260440912704509128040E94C6
:101B6000892D0AE115E023E040E00E94162FB8011C
:101B70008EEF95E00E94D41F88EB91E09F938F93A6
:101B8000C8019F930F930E94A52FB8018EEF95E097
:101B90000E94F31F0F900F900F900F908091F4030D
:101BA0009091F503892B09F440C06091F205709182
:101BB000F3058091F4059091F5050E946E2C20E0CC
:101BC00030E04AE754E40E94D52B0AE115E021E019
:101BD00040E00E94162FF80101900020E9F73197AC
:101BE000EA51F54026E02E9FC0012F9F900D112451
:101BF00064E770E0681B790B40E150E08EEF95E000
:101C00000E948825B8018EEF95E00E94D41F85EBD5
:101C100091E09F938F931F930F930E94A52FB8017C
:101C20008EEF95E00E94F31F46C28091D104882375
:101C300051F00AE115E020E040E06F8D78A1C1018C
:101C40000E94162F0EC082EB91E09F938F938AE142
:101C500095E09F938F930E94A52F0F900F900F9068
:101C60000F90EAE1F5E001900020E9F73197EA51A1
:101C7000F54026E02E9FC0012F9F900D11246AE7AA
:101C800070E0681B790B40E150E08EEF95E00E9418
:101C900088256AE175E08EEF95E00E94D41F6EE51D
:101CA00073E08EEF95E00E94F31F09C2813009F0C6
:101CB000DDC160E082E10E94871D8091290490913E
:101CC0002A04A0E0B0E084159505A605B70510F438
:101CD00061E001C060E082E10E94871D20E030E009
:101CE00040E0C301B2010E9466047AEFE72E74E07F
:101CF000F72E80E2D7011D928A95E9F740E150E086
:101D000060E070E08EEF95E00E94882561E08EEF44
:101D100095E00E948E2561E070E08EEF95E00E94D4
:101D200094258091F4039091F503892B09F4EBC07D
:101D30000E94AB0320E030E040EF51E40E94072B0B
:101D40000E943D2C161617067CF041E050E060E042
:101D500070E08EEF95E00E949A2563E373E08EEFCA
:101D600095E00E94D41FABC1C301B201B9EE4B167E
:101D7000B3E05B066104710488F10E946E2C20E0E0
:101D800030E04AE754E40E94D52B0AE115E021E057
:101D900040E00E94162F45E050E0B8018AEF94E041
:101DA0000E946C2FF70101900020E9F732978081A3
:101DB0008E3209F410826AEF74E08EEF95E00E9493
:101DC000D41F8CEA91E09F938F938AE195E09F93D3
:101DD0008F930E94A52F6AE175E017C00E946E2CB8
:101DE0000AE115E020E040E00E94162FB8018EEFD6
:101DF00095E00E94D41F87EA91E09F938F93C801DA
:101E00009F930F930E94A52FB8018EEF95E00E943B
:101E1000D41F0F900F900F900F90C301B2010E943A
:101E20006E2C209125043091260440912704509176
:101E300028040E94892D6B017C0120E034E244E7F4
:101E400059E40E947E2D1816F4F420E034E244E7B1
:101E500059E4C701B6010E94D52B0AE115E021E043
:101E600040E00E94162F45E050E0B8018AEF94E070
:101E70000E946C2F6AEF74E08EEF95E00E94D41FF1
:101E800080EA91E037C020E030E44CE156E4C7013D
:101E9000B6010E947E2D1816F4F420E030E04AE7E7
:101EA00054E4C701B6010E94D52B0AE115E020E0F9
:101EB00040E00E94162F45E050E0B8018AEF94E020
:101EC0000E946C2F6AEF74E08EEF95E00E94D41FA1
:101ED00089E991E00FC00AE115E020E040E0C70188
:101EE000B6010E94162FB8018EEF95E00E94D41F14
:101EF00083E991E09F938F93C8019F930F930E9472
:101F0000A52FB801D4C00E94AB0320E030E040EF21
:101F100051E40E94072B0E943D2C161617060CF068
:101F200014CF8FE891E09F938F936AE1A62E65E02E
:101F3000B62EBF92AF920E94A52FB5018EEF95E00D
:101F40000E94D41F6091A8057091A9058091AA05EF
:101F50009091AB050E946E2C2091210430912204B7
:101F600040912304509124040E94D52B850121E047
:101F700040E00E94162FB5018EEF95E00E94D41F1D
:101F800089E891E09F938F93BF92AF920E94A52F13
:101F9000B5018EEF95E00E94D41F85E891E09F93F4
:101FA0008F93BF92AF920E94A52FB5018EEF95E05F
:101FB0000E94D41F6091040470910504809106046E
:101FC000909107040E946E2C6B017C0160910004CB
:101FD0007091010480910204909103040E946E2C80
:101FE0002B013C0120E030E040E752E4C701B6019C
:101FF0000E94D52B9B01AC01C301B2010E94D52BDD
:102000002091210430912204409123045091240412
:102010000E94D52B2B013C0120E030E041E655E445
:10202000C701B6010E94D52B9B01AC01C301B201CF
:102030000E94892D20E040E00E94162FB5018EEF0E
:1020400095E00E94D41F82E891E09F938F93BF9206
:10205000AF920E94A52FB5018EEF95E00E94D41F8C
:102060000FB6F894DEBF0FBECDBF29C040E050E0F0
:1020700060E070E08EEF95E00E94882562E08EEFD0
:1020800095E00E948E2541E050E060E070E08EEF28
:1020900095E00E949A2585E791E09F938F938AE1CE
:1020A00095E09F938F930E94A52F6AE175E08EEFD4
:1020B00095E00E94D41F0F900F900F900F90809189
:1020C000DD04882389F188891F928F9389891F9263
:1020D0008F938A891F928F938C891F928F938B89FC
:1020E0001F928F938CE591E09F938F938AE195E007
:1020F0009F938F930E94A52F48E150E060E070E02D
:102100008EEF95E00E94882561E08EEF95E00E94B9
:102110008E2561E070E08EEF95E00E9494256AE1E3
:1021200075E08EEF95E03CC048E150E060E070E083
:102130008EEF95E00E94882561E08EEF95E00E9489
:102140008E2541E050E060E070E08EEF95E00E9467
:102150009A2586E491E09F938F938AE195E09F937F
:102160008F930E94A52F6AE175E08EEF95E00E94A3
:10217000D41F60E082E10E94871DEAE3F5E084E677
:10218000DF011D928A95E9F78AE391E09F938F938F
:10219000FF93EF930E94A52F6AE375E08DE494E02E
:1021A0000E94F31F0FB6F894DEBF0FBECDBF0E9492
:1021B000AB0320E030E040EF51E40E94072B0E9487
:1021C0003D2C6B0177FD07C06930710534F058E094
:1021D000C52ED12C02C0C12CD12C80910C04E091D1
:1021E000FE05F091FF050684F785E02DEE24E394CB
:1021F000F12C07E010E02CE030E08130A1F448E160
:1022000050E064E770E08EEF95E00995E091FE05FF
:10221000F091FF050088F189E02D03E010E09601C0
:102220004AE150E013C040E050E064E770E08EEF18
:1022300095E00995E091FE05F091FF050088F18990
:10224000E02D03E010E0960142E050E066E770E028
:102250008EEF95E009958EEF95E00E94DB27809147
:10226000F4039091F50321E082279093F503809386
:10227000F4036AE375E082E496E00E94F31F809124
:10228000E4058823B1F080910C04811112C08EED19
:1022900094E00E9485206AE375E08EED94E00E9450
:1022A000F31F07C08091DD04882309F4AACB61E005
:1022B000A9CBA196E2E10C94D82E809127069091AB
:1022C0002806A0912906B0912A060196A11DB11DEC
:1022D0008093270690932806A0932906B0932A0698
:1022E0000895809333069093340640932B065093C1
:1022F0002C0660932D0670932E06109227061092DE
:1023000028061092290610922A0643E050E06DE557
:1023100071E10E94B11B08950E94751C60932F0605
:102320007093300680933106909332061092270600
:10233000109228061092290610922A060895CF922C
:10234000DF92EF92FF920F931F930E94751CC09033
:102350002F06D0903006E0903106F09032060091C2
:102360002B0610912C0620912D0630912E066C150F
:102370007D058E059F0588F0DC01CB018C199D0938
:10238000AE09BF0951E040E080179107A207B307EB
:1023900008F450E0852F942F10C0C094D094E0949E
:1023A000F094C60ED71EE81EF91E81E090E0C0161C
:1023B000D106E206F30608F480E01F910F91FF902A
:1023C000EF90DF90CF9008956091270670912806D6
:1023D0008091290690912A060895EF92FF920F931B
:1023E0001F93FC017183608353834283358324836D
:1023F00017830683F186E0861F910F91FF90EF907F
:102400000895EF92FF920F931F93CF93DF93EB0109
:102410007C012DE2E20EF11C49918C010F5F1F4FF0
:10242000BC0180E797E00E9442230E151F0511F0C2
:10243000C801F2CF8DE290E0CDB7DEB7E6E00C94B4
:10244000E42EEF92FF920F931F93CF93DF937C01C3
:102450008B01C0E0D0E0F80141918F01BE016E0D0B
:102460007F1D80E797E00E9442232196C830D10566
:1024700091F788E090E0CDB7DEB7E6E00C94E42E6B
:10248000EF92FF920F931F93CF93DF93EC01EA81BA
:10249000FB818DE2DF011D928A95E9F70A811B819C
:1024A00064EF71E07B01BFEFEB1AFB0A80E797E076
:1024B0000E943E23F80181938F01F1E2EF16F2E0D2
:1024C000FF0611F0B701EECFEA81FB814081518117
:1024D000628173814D30504F6E4F7A4509F44EC082
:1024E0008DE2DF011D928A95E9F7EA81FB814DE0DB
:1024F00050EF6EEF7AE54083518362837383178ACE
:10250000168A89E083A38BE293E09F938F938A815D
:102510009B8184969F938F930E94A52FEA81FB81D4
:102520008CE3808FEA81FB8140E050E067EA73E44E
:10253000418F528F638F748F40E050E064E172E40A
:10254000458F568F678F70A384E690E093A782A78C
:10255000BF0184EF91E00E940112EC81FD8188E0CF
:10256000DF011D928A95E9F76C817D8188EC90E00E
:102570000E9421120F900F900F900F90CDB7DEB7F1
:10258000E6E00C94E42EA2E0B0E0E9ECF2E10C9479
:10259000C02E3C01DC018D919C9169837A830E945D
:1025A0008520F30181858F9380858F937A817F9336
:1025B00069816F938EE193E09F938F9387818F93CF
:1025C00086818F930E94A52FD30116966D917C91E1
:1025D00017978D919C910E94D41FF3018081918166
:1025E000DC01ED91FC910190F081E02D6DE0099509
:1025F0000FB6F894DEBF0FBECDBFD3018D919C9175
:10260000DC01ED91FC910480F581E02D0995892B89
:10261000A1F3F30180819181DC01ED91FC910680B1
:10262000F781E02D09950D9741F7F301408551851C
:1026300060E070E0868197810E94552F00E010E0F5
:10264000A12CD3018D919C91DC01ED91FC91048032
:10265000F581E02D0995892BB1F0FF24F394FA0C54
:10266000F301068117810A0D111D80819181DC0122
:10267000ED91FC910680F781E02D0995F8018083AA
:10268000AF2C00E010E061E070E080E090E00E949C
:10269000A41C2A2D30E0D30118968D919C91199796
:1026A0002817390729F420E0B12C88E0882E24C0AF
:1026B0000F5F1F4F083EB3E01B071CF2F4CF6F5FA4
:1026C000492D50E0D30118962D913C91199742174E
:1026D000530751F0292D99249394920EDC01A20FF7
:1026E000B11D2C912A3059F7DF01A60FB11D1C92A4
:1026F000808181110CC0292D2A1508F0B6C1F30183
:1027000086819781FC01E20FF11D60E0E4CF833206
:1027100091F3633080F380E07F01E80EF11CD70174
:102720009C91903221F48F5F8613F6CFE4CF9930DD
:10273000D1F3861701F3DF01A80FB11D9C919D33E2
:1027400039F0903211F0993009F41C928F5FF1CF7B
:10275000861789F28F5F1C928F01080F111DD80117
:102760009C91903221F48F5F8613F6CFC4CF9930BD
:10277000D1F3861709F4BFCF69E473E0C7010E9463
:102780005C2F892B19F5C8010E94372FBC018827BF
:1027900077FD8095982F0E94702C6B017C01F301CE
:1027A000028113819B01AC01D80159966D917D91F5
:1027B0008D919C915C970E94CE2B882309F49BCF2E
:1027C000F801C18ED28EE38EF48E30C16EE473E0D8
:1027D000C7010E945C2F892B29F5C8010E94372F61
:1027E000BC01882777FD8095982F0E94702C6B0183
:1027F0007C01D30112960D911C9113979B01AC01A2
:10280000F801658D768D878D90A10E94CE2B88234F
:1028100009F471CFD8015D96CD92DD92ED92FC92D4
:10282000909704C163E573E0C7010E945C2F892B78
:1028300039F4F301E280F380F6E0EF0EF11C72C090
:1028400066E573E0C7010E945C2F892B91F4D301E8
:102850001296ED90FC901397C8010E94372FF70154
:10286000268937892817390709F445CF978B868B36
:10287000DDC06AE573E0C7010E945C2F892B89F4F3
:10288000D3011296ED90FC901397C8010E94372F48
:10289000F701248130E02817390709F42CCF84830D
:1028A000C5C06DE573E0C7010E945C2F892B89F4D8
:1028B000D3011296ED90FC901397C8010E94372F18
:1028C000F701258130E02817390709F414CF8583F3
:1028D000ADC060E673E0C7010E945C2F892B91F4C4
:1028E000D3011296ED90FC901397C8010E94372FE8
:1028F000F70121A132A12817390709F4FCCE92A3D0
:1029000081A394C063E673E0C7010E945C2F892B0A
:10291000A9F4D80113961C92F301E280F380F4E24B
:10292000EF0EF11CB801C7010E945C2F892B09F43E
:10293000E2CEB801C7010E94652F78C066E673E059
:10294000C7010E945C2F892B89F4D3011296ED9068
:10295000FC901397C8010E94372FF70123A130E0A4
:102960002817390709F4C7CE83A360C069E673E06E
:10297000C7010E945C2F892B89F4D3011296ED9038
:10298000FC901397C8010E94372FF70120A530E073
:102990002817390709F4AFCE80A748C06CE673E06A
:1029A000C7010E945C2F892B89F4D3011296ED9008
:1029B000FC901397C8010E94372FF70121A530E042
:1029C0002817390709F497CE81A730C06FE673E066
:1029D000C7010E945C2F892B91F4D3011296ED90D0
:1029E000FC901397C8010E94372FF70122A533A549
:1029F0002817390709F47FCE93A782A717C062E78B
:102A000073E0C7010E945C2F892B99F4D3011296C1
:102A1000ED90FC901397C8010E94372FF70124A571
:102A200030E02817390709F466CE84A7BB24B39495
:102A300062CE65E773E0C7010E945C2F892B09F025
:102A40005ACED3011496ED91FC911597DF01882D94
:102A50001D928A95E9F7D30114966D917C91159793
:102A600088EC90E00E94211246CEBB2039F0F301A1
:102A70006281738184EF91E00E9401122296EEE060
:102A80000C94DC2E0F931F93FC01862F0FEF1FEF8A
:102A90009801008311832283338310861186128666
:102AA00013864FEF59EC6AE97BE3408B518B628BC5
:102AB000738B408F518F628F738F40A351A362A39A
:102AC00073A340A751A762A773A740AB51AB62ABFA
:102AD00073AB00AF11AF22AF33AFDF01A05CBF4FCC
:102AE0004FEF50E011965C934E9314960D931D9307
:102AF0002D933C93139718960D931D932D933C9310
:102B0000139718961C9211961C92509692E09C93E3
:102B100011961C9211961C9211961C9212961D925F
:102B20001D921D921C921397149611961C921E9240
:102B3000129611961C921E925A971C92E759FF4FBB
:102B400080831F910F9108952FEB260F862F90E021
:102B5000263010F4C79708956156663018F48755EB
:102B600091090895C0970895CF93FB0160E070E04C
:102B7000CB01C19120ED2C0F2A3078F4AAE0B0E00F
:102B80009B01AC010E94A92E6C0F711D811D911D2E
:102B90006053710981099109ECCFCF9108950F938A
:102BA0001F93CF93FC01EA5AFF4FC1E020812D32E1
:102BB00019F0C0E08F0103C08C01095A1F4FB80102
:102BC0000E94B4159B01AC01A4E6B0E00E94A92EBE
:102BD000F801DF01219130ED320F3A30D0F32E327F
:102BE00049F511962C91119730ED320F3A3010F5CE
:102BF00030E0205331094AE0429F8001439F100D8D
:102C00001124222717FD2095322F600F711F821F7C
:102C1000931F12960C9120ED200F2A3058F410E0EB
:102C200000531109222717FD2095322F600F711FC5
:102C3000821F931FCC2339F09095809570956195F4
:102C40007F4F8F4F9F4FCF911F910F9108954F92BC
:102C50005F926F927F928F929F92AF92BF92CF922C
:102C6000DF92EF92FF92CF93DF93EC01CA5ADF4FCE
:102C7000BE010E94B4152B013C0124E630E040E087
:102C800050E00E94812E9B01AC0160EA76E881E071
:102C900090E00E945D2E6B017C01FE01819190ED20
:102CA000980F9A30D8F38E3209F5EF0180E1882E23
:102CB00087E2982EA12CB12CA99180ED8A0F8A3041
:102CC000A8F4B0E0D097A50194010E94B42EC60EDE
:102CD000D71EE81EF91EC501B4012AE030E040E02D
:102CE00050E00E94812E49015A01E6CFC701B6018A
:102CF0006B5F7F4F8F4F9F4F26E030E040E050E00A
:102D00000E94812E69017A01C301B20124E630E0FC
:102D100040E050E00E94812E60E472E48FE090E099
:102D20000E945D2EC60ED71EE81EF91EC701B60111
:102D3000DF91CF91FF90EF90DF90CF90BF90AF9059
:102D40009F908F907F906F905F904F9008954F92DB
:102D50005F926F927F928F929F92AF92BF92CF922B
:102D6000DF92EF92FF92CF93DF93EC01CA5ADF4FCD
:102D7000BE010E94B4152B013C01FE01819190ED32
:102D8000980F9A30D8F38E3221F5EF0190E1892E19
:102D900097E2992EA12CB12CC12CD12C7601A991AE
:102DA00080ED8A0F8A30C0F4B0E0D097A50194017D
:102DB0000E94B42EC60ED71EE81EF91EC501B4012E
:102DC0002AE030E040E050E00E94812E49015A01A3
:102DD000E6CFC12CD12C7601A301920160EA76E8FE
:102DE00081E090E00E945D2E6C0D7D1D8E1D9F1D6B
:102DF000DF91CF91FF90EF90DF90CF90BF90AF9099
:102E00009F908F907F906F905F904F900895DB011F
:102E1000FA018D91882319F091918917D1F390E0EF
:102E20000895CF92DF92EF92FF921F93CF93DF939B
:102E3000EC01FC01EB5AFF4F1081112309F4D7C0BC
:102E4000319660810E94A415182FFE01E95AFF4FA8
:102E50006081CE010E94A41540E1149F800D1124D1
:102E6000FE01EC5AFF4F90818913B9C0749610810E
:102E7000112309F485C03696808191810196918352
:102E80008083B69780819181A281B38134978083BA
:102E90009183A283B3833C9680819181A281B38187
:102EA000349780839183A283B3837996808188232A
:102EB000A1F1813009F07EC18C819D81AE81BF81FD
:102EC00088839983AA83BB838C859D85AE85BF85C6
:102ED00088879987AA87BB878C899D89AE89BF8996
:102EE000888B998BAA8BBB8B8C8D9D8DAE8DBF8D66
:102EF000888F998FAA8FBB8F8CA59DA5AEA5BFA5E6
:102F000088A799A7AAA7BBA78CA99DA9AEA9BFA965
:102F100088AB99ABAAABBBAB4DC18CA19DA1AEA1B7
:102F2000BFA188A399A3AAA3BBA38C819D81AE81D5
:102F3000BF8188839983AA83BB838C899D89AE894D
:102F4000BF89888B998BAA8BBB8B8C8D9D8DAE8D09
:102F5000BF8D888F998FAA8FBB8FFE01E05CFF4FDA
:102F6000DE01AE5BBF4F8D919C91918380838CADD0
:102F70009DADAEADBFAD88AF99AFAAAFBBAF1AC123
:102F80004C815D816E817F8141155105610571051F
:102F900009F410C1FE01E85BFF4F80819181A2819D
:102FA000B381349780839183A283B383B196808168
:102FB000882381F0813009F0FDC0488359836A83FA
:102FC0007B838C859D85AE85BF8588879987AA87F9
:102FD000BB87F0C0488359836A837B83EBC0C059A9
:102FE000DF4F8881998101969983888396C0FC017F
:102FF000EA59FF4F30818B599F4F7C0131111DC021
:103000006E0196E5C90ED11C4AE753E0B601CE0128
:103010000E940717892B11F481E00CC040E853E0AF
:10302000B601CE010E940717892B19F4F70110820F
:10303000C1C082E0D7018C93BDC0DC01EC91E230CD
:1030400009F4B8C0CE018A5A9F4FDC012C9122238B
:1030500009F4B0C0B0E2EB9FF0011124E32B3197EB
:10306000E932F10508F0A6C0EC5CFF4F0C94A32EEA
:10307000CE010E94CF156C837D838E839F830E9437
:10308000751CC85BDF4F1CC0C859DF4F81E021347D
:1030900009F076C076C0FE01E759FF4F8081882392
:1030A00021F0CE010E94A71603C0CE010E94271670
:1030B0006C8B7D8B8E8B9F8B0E94751CC05BDF4F52
:1030C000688379838A839B8375C0233509F072C036
:1030D0008C899D89AE89BF89B095A0959095819581
:1030E0009F4FAF4FBF4F8C8B9D8BAE8BBF8B62C002
:1030F000FE01E759FF4F8081882341F0CE010E94F5
:10310000A7166C8F7D8F8E8F9F8F54C0CE010E942B
:1031100027166C8F7D8F8E8F9F8F10E04BC02735C9
:1031200009F048C08C8D9D8DAE8DBF8DB095A0955A
:10313000909581959F4FAF4FBF4F8C8F9D8FAE8FD6
:10314000BF8F38C0CE010E94CF156CA77DA78EA778
:103150009FA730C0CE010E94CF156CAB7DAB8EAB6C
:103160009FAB28C0BC01CE010E94B4156C877D873F
:103170008E879F871FC0C859DF4F81E0213308F435
:1031800080E0888317C00E94372FCE5BDF4F9927DE
:10319000998388830FC0CE010E94CF156CAF7DAF9D
:1031A0008EAF9FAF07C0CE010E94CF156CA37DA349
:1031B0008EA39FA3812FDF91CF911F91FF90EF905E
:1031C000DF90CF900895A1E0B0E0E9EEF8E10C9433
:1031D000C62E6C01262FFC01E659FF4F408151811C
:1031E000628173814F5F5F4F6F4F7F4F4083518389
:1031F000628373838C0109591F4F8B5A9F4F7C0147
:10320000243281F128F42A3069F02D30E9F50AC022
:103210002A3241F02C32C1F5F601EC5AFF4F808181
:1032200082278083F80180818F3060F4F601E80FF7
:10323000F11DEA5AFF4F1082C60129830E9411171F
:10324000298101C080E0F601EA59FF4F90819F5F1C
:103250009083F801108291E02A3209F090E0F701A2
:1032600090832AC0F8011082F601EA59FF4F1082BC
:1032700072971082719682E08083F7011082F601C6
:10328000E859FF4F108217C0F80180818E3048F452
:1032900091E0980F9083F601E80FF11DEA5AFF4F75
:1032A0002083F7018081811106C0F601EC5AFF4F9F
:1032B00080818227808380E02196E8E00C94E22ED2
:1032C000A0E1B0E0E6E6F9E10C94BE2E69837A83D2
:1032D0008B839C83CA01B90127013801A60195019E
:1032E0000E94072B25E33AEF4EE85CE30E94892D0C
:1032F0006B017C010E94EC2D6D877E878F87988BF8
:10330000C701B6010E94D22B6D837E838F8398877D
:1033100025E33AEF4EE85CE369817A818B819C81F9
:103320000E94892D6B017C0125E33AEF4EE85CE3B6
:10333000C301B2010E94892D2B013C01C701B601D6
:103340000E94EC2D4B015C01C701B6010E94D22BFB
:1033500069837A838B839C83C301B2010E94EC2D25
:1033600069877A878B879C87C301B2010E94D22B21
:103370006B017C0129853A854B855C8569817A8161
:103380008B819C810E94892D2B013C01A701960114
:10339000C501B4010E94892D2D813E814F81588540
:1033A0000E94892D9B01AC01C301B2010E94072B31
:1033B0009B01AC010E94892D2B013C012D853E858E
:1033C0004F855889C701B6010E94892D9B01AC0128
:1033D0000E94892D9B01AC01C301B2010E94082B00
:1033E0000E94F62D2B013C0129853A854B855C8591
:1033F000C501B4010E94892D4B015C01A701960112
:1034000069817A818B819C810E94892D2D813E81E9
:103410004F8158850E94892D9B01AC01C501B401E3
:103420000E94082B9B01AC01C301B2010E947B2BBF
:1034300026E73BE742EC5AE40E94892D6096E0E1E2
:103440000C94DA2EA0E0B0E0E8E2FAE10C94C62E8B
:10345000E9016115710551F0FC01C088D188E2884D
:10346000F388FB01C082D182E282F38241155105CB
:1034700051F0FC01C08CD18CE28CF38CFA01C0823B
:10348000D182E282F382209701F18C01045B1F4F0D
:10349000F80180819181A281B3818F3F9F4FAF4F0F
:1034A000BF4F61F00E94751CF801008111812281DB
:1034B0003381601B710B820B930B03C06FEF7FEFA7
:1034C000CB01688379838A839B83CDB7DEB7E8E03D
:1034D0000C94E22EA0E0B0E0E0E7FAE10C94C62EF6
:1034E000E9016115710551F0FC01C084D184E284C9
:1034F000F384FB01C082D182E282F382411551053F
:1035000051F0FC01C080D180E280F380FA01C082DA
:10351000D182E282F382209701F18C010C5B1F4F74
:10352000F80180819181A281B3818F3F9F4FAF4F7E
:10353000BF4F61F00E94751CF8010081118122814A
:103540003381601B710B820B930B03C06FEF7FEF16
:10355000CB01688379838A839B83CDB7DEB7E8E0AC
:103560000C94E22EAAE0B0E0E8EBFAE10C94BC2E59
:103570002B015A87498719019401AE014F5F5F4FB4
:10358000BE016B5F7F4F0E946A1A41145104B9F06B
:103590006D817E818F81988524E630E040E050E0A7
:1035A0000E94812E613571051CF02CE637E002C0C7
:1035B00020ED37E0620F731FF2017183608389850C
:1035C0009A85892BB1F06D817E818F81988544E643
:1035D000442E512C612C712CA30192010E94812E4A
:1035E000CA01B901A30192010E94812EE985FA85E1
:1035F00060832114310461F06D817E818F81988513
:1036000020E137E240E050E00E94812EF10120836A
:103610000115110561F069817A818B819C8120E41B
:1036200032E44FE050E00E94812EF8012083E11443
:10363000F104A1F069817A818B819C8120E137E2DC
:1036400040E050E00E94812ECA01B90124E630E03A
:1036500040E050E00E94812EF7016083C114D10444
:10366000A9F069817A818B819C8134E6432E512CAB
:10367000612C712CA30192010E94812ECA01B90113
:10368000A30192010E94812EF6016083A114B1046E
:1036900061F069817A818B819C8124E630E040E091
:1036A00050E00E94812EF50160832A96E2E10C949D
:1036B000D82EFC0160A171A182A193A16F3FF9EC0A
:1036C0007F07FAE98F07FBE39F0749F00E94702C00
:1036D00020E030E048EC52E40E94D52B089560E0F1
:1036E00074E284E799E40895FC0160A571A582A5C0
:1036F00093A56F3FF9EC7F07FAE98F07FBE39F077C
:1037000049F00E946E2C20E030E048EC52E40E9428
:10371000D52B089560E070E080E89FEB0895CF928C
:10372000DF92EF92FF920E94741B6B017C0120E0FC
:1037300030E040E85FEB0E94CE2B882349F026E57D
:103740003EE04DEE5FE3C701B6010E94892D04C043
:1037500060E070E080E89FEBFF90EF90DF90CF900B
:1037600008958230E8F4E82FF0E0EE0FFF1FEB5CE5
:10377000F94F71836083813041F0809169008C7FC3
:10378000842B80936900E89A089580916900440F22
:10379000551F440F551F837F842B80936900E99A3E
:1037A00008951F920F920FB60F9211242F933F93FB
:1037B0004F935F936F937F938F939F93AF93BF9339
:1037C000EF93FF938091350690913606892B29F06F
:1037D000E0913506F09136060995FF91EF91BF9182
:1037E000AF919F918F917F916F915F914F913F9199
:1037F0002F910F900FBE0F901F9018951F920F9250
:103800000FB60F9211242F933F934F935F936F93B3
:103810007F938F939F93AF93BF93EF93FF93809189
:10382000370690913806892B29F0E0913706F09100
:1038300038060995FF91EF91BF91AF919F918F91BC
:103840007F916F915F914F913F912F910F900FBE9C
:103850000F901F9018951F920F920FB60F92112480
:103860002F933F938F939F93AF93BF9380913A068B
:1038700090913B06A0913C06B0913D0630913906EF
:1038800026E0230F2D3720F40296A11DB11D05C09F
:1038900029E8230F0396A11DB11D209339068093BB
:1038A0003A0690933B06A0933C06B0933D06809168
:1038B0003E0690913F06A0914006B09141060196C8
:1038C000A11DB11D80933E0690933F06A093400634
:1038D000B0934106BF91AF919F918F913F912F91EE
:1038E0000F900FBE0F901F9018952FB7F89460910E
:1038F0003A0670913B0680913C0690913D062FBFA1
:1039000008953FB7F89480913E0690913F06A091AC
:103910004006B091410626B5A89B05C02F3F19F07F
:103920000196A11DB11D3FBF6627782F892F9A2FC1
:10393000620F711D811D911D43E0660F771F881F67
:10394000991F4A95D1F70895CF92DF92EF92FF9297
:10395000CF93DF936B017C010E94811CEB01C114AA
:10396000D104E104F10479F00E94811C6C1B7D0BF1
:10397000683E7340A0F381E0C81AD108E108F1085D
:10398000C851DC4FECCFDF91CF91FF90EF90DF90EB
:10399000CF900895789484B5826084BD84B58160A9
:1039A00084BD85B5826085BD85B5816085BDEEE647
:1039B000F0E0808181608083E1E8F0E01082808126
:1039C00082608083808181608083E0E8F0E0808194
:1039D00081608083E1EBF0E0808184608083E0EBB4
:1039E000F0E0808181608083EAE7F0E0808184609C
:1039F00080838081826080838081816080838081F8
:103A0000806880831092C100089580930901089511
:103A10008E3008F08E5087702091090190E4299F24
:103A200090011124822B80937C0080917A00806425
:103A300080937A0080917A0086FDFCCF8091780097
:103A40002091790090E0922B0895833081F028F442
:103A5000813099F08230A1F008958630A9F0873046
:103A6000B9F08430D1F4809180008F7D03C08091C3
:103A700080008F7780938000089584B58F7702C08F
:103A800084B58F7D84BD08958091B0008F7703C089
:103A90008091B0008F7D8093B0000895CF93DF9325
:103AA00090E0FC01ED5BFC4F2491FC01E95AFC4FD6
:103AB0008491882349F190E0880F991FFC01E15817
:103AC000FC4FA591B4918B589C4FFC01C591D491AA
:103AD0009FB7611108C0F8948C91209582238C9334
:103AE000888182230AC0623051F4F8948C91322F7D
:103AF000309583238C938881822B888304C0F8942B
:103B00008C91822B8C939FBFDF91CF910895A1E080
:103B1000B0E0EDE8FDE10C94CA2E282F30E0F90169
:103B2000E15DFC4F8491F901ED5BFC4F1491F901CB
:103B3000E95AFC4F04910023C9F0882321F06983DE
:103B40000E94251D6981E02FF0E0EE0FFF1FEB586A
:103B5000FC4FA591B4919FB7F8948C91611103C06B
:103B60001095812301C0812B8C939FBF2196E4E0A7
:103B70000C94E62EFC0124853585F901E05CFF4FAD
:103B800080819181329620813181821B930B8F73CA
:103B900099270895FC0184859585FC01E05CFF4F21
:103BA000408151813296208131814217530741F083
:103BB0000190F081E02DE80FF91F808190E00895D9
:103BC0008FEF9FEF0895FC0184859585FC01E05CF3
:103BD000FF4F408151813296208131814217530736
:103BE00079F0A081B181A80FB91F8C91208131811A
:103BF0002F5F3F4F2F7333273183208390E0089549
:103C00008FEF9FEF0895FC0181A1882329F0A489FB
:103C1000B5898C9186FFFBCF11A20895CF93DF93D6
:103C2000FC0126853785D901A05CBF4F8D919C9101
:103C3000119701968F739927E901CE5BDF4F488179
:103C4000598184179507D9F30D90BC91A02DA20F2F
:103C5000B31F6C93A685B785A05CBF4F11969C934C
:103C60008E93A689B7892C9181E090E0078C02C0E1
:103C7000880F991F0A94E2F7282B2C9381E081A3E7
:103C80000488F589E02D80818064808381E090E064
:103C9000DF91CF91089508951F920F920FB60F9262
:103CA00011242F933F934F938F939F93EF93FF9301
:103CB0008091C00082FD1CC04091C6008091E80642
:103CC0009091E90601968F7399272091EA06309129
:103CD000EB068217930771F0E091E806F091E90690
:103CE000E855F94F40839093E9068093E80602C0B7
:103CF0008091C600FF91EF919F918F914F913F91DD
:103D00002F910F900FBE0F901F90189582E496E0B0
:103D10000E94BA1D892B11F00E944B1E08951F921C
:103D20000F920FB60F9211242F933F938F939F936F
:103D3000EF93FF932091A4063091A5068091A606EB
:103D40009091A7062817390731F48091C1008F7D23
:103D50008093C10014C0E091A606F091A706EC592B
:103D6000F94F20818091A6069091A70601968F7346
:103D700099279093A7068093A6062093C600FF91EB
:103D8000EF919F918F913F912F910F900FBE0F90C8
:103D90001F901895CF92DF92EF92FF92CF93DF930F
:103DA000EC016A017B01EC89FD8981E090E008A0CB
:103DB00002C0880F991F0A94E2F7808360E874E8D4
:103DC0008EE190E0A70196010E94812E21503109D9
:103DD000410951095695479537952795211580E159
:103DE000380798F0EC89FD89108260E472E48FE076
:103DF00090E0A70196010E94812E215031094109CE
:103E000051095695479537952795E889F989308363
:103E1000EA89FB89208319A2EE89FF89408181E02C
:103E200090E09C010C8C02C0220F331F0A94E2F731
:103E3000422B4083EE89FF8940819C010D8C02C09A
:103E4000220F331F0A94E2F7422B4083EE89FF8949
:103E500040819C010E8C02C0220F331F0A94E2F7AE
:103E6000422B4083EE89FF8920810F8C02C0880F8E
:103E7000991F0A94E2F7809582238083DF91CF9186
:103E8000FF90EF90DF90CF9008951092450610922A
:103E9000440688EE93E0A0E0B0E08093460690935D
:103EA0004706A0934806B093490682EB93E09093AF
:103EB00043068093420688EA96E090934F068093EB
:103EC0004E0684E696E0909351068093500685EC6A
:103ED00090E0909353068093520684EC90E0909388
:103EE00055068093540680EC90E09093570680939B
:103EF000560681EC90E0909359068093580682EC28
:103F000090E090935B0680935A0686EC90E0909345
:103F10005D0680935C0684E080935E0683E0809378
:103F20005F0687E08093600685E08093610681E00C
:103F3000809362060895A0E0B0E0E1EAFFE10C940E
:103F4000C62E6C017A01EB01E60EF71E00E010E0D0
:103F5000CE15DF0561F06991D601ED91FC910190DC
:103F6000F081E02DC6010995080F191FF1CFC80196
:103F7000CDB7DEB7E8E00C94E22E6115710589F04B
:103F8000DB010D900020E9F7AD0141505109461BBE
:103F9000570BDC01ED91FC910280F381E02D099536
:103FA000089580E090E008950E94BD1F0895DC010F
:103FB000ED91FC910190F081E02D099508950F930A
:103FC0001F93CF93DF93EC016DE00E94D71F8C010C
:103FD0006AE0CE010E94D71F800F911FDF91CF9121
:103FE0001F910F9108950F931F93CF93DF93EC01CF
:103FF0000E94BD1F8C01CE010E94DF1F800F911F08
:10400000DF91CF911F910F9108950E94CA1C0E94C9
:10401000E405C6E8DEE10E94FD072097E1F30E9477
:10402000861EF9CF20916E0730916F072817390748
:10403000B9F49091EC068091ED06981789F0E09123
:10404000EC06F0E0E251F94F80812091EC0630E07F
:104050002F5F3F4F2F7733272093EC0690E0089592
:104060008FEF9FEF089520916E0730916F0728170B
:10407000390771F49091EC068091ED06981741F0A4
:10408000E091EC06F0E0E251F94F808190E0089574
:104090008FEF9FEF089520916E0730916F072817DB
:1040A000390771F48091ED062091EC0690E080587C
:1040B0009F4F821B910960E870E00E946D2E089569
:1040C00080E090E0089520916E0730916F072817E7
:1040D000390739F48FB7F8941092ED061092EC0678
:1040E0008FBF0895DC015196ED91FC91529720818C
:1040F00050968C91809582238083089520E00197CB
:104100002FEF8F3F9207D9F7089520916E073091D6
:104110006F072817390789F0FC01238D2E7F238F25
:104120002FB7F8941092ED061092EC0690936F075B
:1041300080936E072FBF81E0089580E00895EF928D
:10414000FF920F931F93CF93DF93EC018B8DEE853E
:10415000FF859D8581FF04C08081892329F447C0A4
:104160008081892309F043C08B899C890E947E202D
:1041700008E010E0EE24E394F12C8D899E890E94E2
:104180007E20EE85FF8580819D85892311F0FE28A4
:1041900003C08E2D8095F822EE0C015011090115F7
:1041A000110559F78F89988D0E947E208B8D81FD96
:1041B000F0948091ED062091EC0690E001968F77C7
:1041C000992730E08217930779F0E091ED06F0E04F
:1041D000E251F94FF0828091ED0690E001968F77E1
:1041E00099278093ED0603C08B8D81608B8FCDB7AF
:1041F000DEB7E6E00C94E42E611103C00E94722049
:104200000895DC015196ED91FC91529720815096D2
:104210008C91282B20830895A0E0B0E0E2E1F1E248
:104220000C94C72EEC01E62E898D9A8D892B39F4DA
:1042300081E090E09B838A8380E090E04DC0DFB610
:10424000F8946B8D66956170CE010E94FC20898D7B
:104250009A8D04960E947E208B8D08E010E0FF244A
:10426000F39481FF19C08F2D8E2121F0CE010E9481
:10427000722004C061E0CE010E94FC20898D9A8DDD
:104280000E947E20FF0C015011090115110559F7FC
:10429000CE010E94722019C08F2D8E2129F061E07D
:1042A000CE010E94FC2003C0CE010E947220898DA5
:1042B0009A8D0E947E20FF0C0150110901151105F5
:1042C00059F761E0CE010E94FC20DFBE898D9A8DF6
:1042D0000E947E2081E090E0CDB7DEB7E7E00C944D
:1042E000E32E80916E0790916F07009711F00E9466
:1042F0009F2008951F920F920FB60F9211242F93B3
:104300003F934F935F936F937F938F939F93AF935D
:10431000BF93EF93FF930E947121FF91EF91BF91A3
:10432000AF919F918F917F916F915F914F913F914D
:104330002F910F900FBE0F901F9018951F920F9204
:104340000FB60F9211242F933F934F935F936F9368
:104350007F938F939F93AF93BF93EF93FF930E94AD
:104360007121FF91EF91BF91AF919F918F917F91BB
:104370006F915F914F913F912F910F900FBE0F90D2
:104380001F9018951F920F920FB60F9211242F9322
:104390003F934F935F936F937F938F939F93AF93CD
:1043A000BF93EF93FF930E947121FF91EF91BF9113
:1043B000AF919F918F917F916F915F914F913F91BD
:1043C0002F910F900FBE0F901F9018951F93CF93B2
:1043D000DF93EC01162F61E0812F0E944E1D61E0FA
:1043E000812F0E94871D812F90E0FC01ED5BFC4F27
:1043F000E491E88BFC01E95AFC4FE491F0E0EE0F08
:10440000FF1FEB58FC4F859194919A8B898BDF911C
:10441000CF911F9108951F93CF93DF93EC01162F37
:1044200060E0812F0E944E1D8B8D81FD04C061E0F4
:10443000812F0E94871D1C87812F90E0FC01ED5B7E
:10444000FC4FE491ED87FC01E95AFC4FE491F0E068
:10445000EE0FFF1FE559FC4F859194919F878E8742
:10446000DF91CF911F910895FF920F931F93CF93E8
:10447000DF93EC01F62E522F1B821A8208EE13E016
:1044800020E030E00C831D832E833F8382EC93E099
:10449000998388831C8A1B8A1E8A1D8A188E1F8A0C
:1044A0001A8E198E8B8D8E7F50FB81F98B8F642F26
:1044B000CE010E94E6216F2DCE010E940B22CDB7C6
:1044C000DEB7E5E00C94E52E0F931F93CF93DF93B7
:1044D000EC011A8E198E188E1F8A1E8A1D8AA9E871
:1044E000B3E080E090E0FD010591159125913491B4
:1044F000041715072607370709F031C02CE0289F5D
:10450000F001299FF00D1124E357FC4F25913491C0
:104510003C8B2B8B2CE0289FF001299FF00D112460
:10452000E157FC4F259134913E8B2D8B2CE0289F39
:10453000F001299FF00D1124EF56FC4F2591349185
:10454000388F2F8B2CE0289FF001299FF00D11242C
:10455000ED56FC4F859194919A8F898F08C00196F2
:104560001C968D30910509F0BECF1C8A1B8A8F895D
:10457000988D892B09F443C08C858631E0F5209114
:104580006800883050F091E08E3008F490E081E0CF
:1045900001C0880F9A95EAF701C084E0822B8093CE
:1045A00068002C85283038F02E3040F0263148F055
:1045B000E0E0F0E008C0EDE6F0E005C0EBE6F0E09A
:1045C00002C0ECE6F0E03081283030F481E001C038
:1045D000880F2A95EAF70DC0822F90E02E3010F454
:1045E000089701C00E9791E001C0990F8A95EAF7EC
:1045F000892F832B8083898D9A8D0E947E20CE0106
:104600000E948520DF91CF911F910F910895FC01A9
:104610004485463150F5483028F04E3030F4EBE612
:10462000F0E005C0EDE6F0E002C0ECE6F0E050811D
:10463000483040F481E090E0042E01C0880F0A94D5
:10464000EAF710C0242F30E04E3018F4285031091A
:1046500002C02E50310981E090E0022E01C0880F87
:104660000A94EAF7809585238083089522EC33E04D
:10467000FC01318320830E9407230895CB010E940F
:1046800099310895CB01642F0E94A1310895FC0156
:104690007583648371876087578346835387428716
:1046A000158A158614861786168621E0248B8FEFCF
:1046B0009FEF938B828B918B808B268B0895A4E048
:1046C000B0E0E5E6F3E20C94BC2E4C017C836B83F6
:1046D0006A015901C8018701AC014C195D0957FFF6
:1046E00003C051954195510995016B817C81261B31
:1046F000370B37FF03C031952195310922242394CC
:10470000312C2417350714F0212C312C21143104BD
:1047100059F03A2D2B2D5C01832F922F3B812C8158
:10472000DC82CB82C32ED22EAB81BC81AA16BB0603
:104730005CF43C2D2D2D6C01832F922F3B812C811D
:10474000BC82AB82A32EB22E2501EB81FC814E1AD6
:104750005F0A3C016C187D0877FE03C07194619478
:104760007108720157FE03C0FFEFEF1AFF0AF594BC
:10477000E794C816D9062CF421E030E03A83298367
:1047800024C06FEF7FEF7A8369831FC0D401ED915E
:10479000FC910480F581E02D980121143104D9F0B9
:1047A0004B815C81B601C4010995E618F708F7FE54
:1047B00006C0E981FA81CE0EDF1EE40CF51C2B81C8
:1047C0003C812F5F3F4F3C832B836B817C81A616FE
:1047D000B706E4F604C0A6016B817C81E4CF249681
:1047E000E2E10C94D82EA0E0B0E0E9EFF3E20C9403
:1047F000C02EEC015B016A0139014801E881F981B1
:104800000484F585E02D87010995E881F981A601E9
:10481000480D591D415051090484F585E02D93013F
:10482000B501CE010995E881F9810284F385E02D77
:104830009401A601B501CE010995E881F981B50180
:10484000660D771D615071090284F385E02D940196
:10485000A601CE010995CDB7DEB7EEE00C94DC2EB3
:10486000EF92FF920F931F93DC01ED91FC91240FC7
:10487000351F215031090084F185E02D780189012F
:104880009B0109951F910F91FF90EF900895EF9272
:10489000FF920F931F93DC01ED91FC91260F371FC0
:1048A000215031090084F185E02D78018A010995B4
:1048B0001F910F91FF90EF900895A0E0B0E0E3E624
:1048C000F4E20C94C02E5C014A0169013801EB014D
:1048D000C60ED71ECC15DD0574F4D501ED91FC9103
:1048E0000284F385E02D87019301A401BE01C50177
:1048F00009952196EFCFCDB7DEB7EEE00C94DC2E14
:10490000ACE0B0E0E6E8F4E20C94BC2E9C878B8728
:104910003A0118870F83FA86E986CD82DC01189662
:104920008D919C911997681779070CF099C01A9688
:104930008D919C911B97481759070CF091C08C2CB6
:10494000912CCB01B5E0CB9E800D911D1124181642
:1049500019060CF085C0C401E3E0880F991FEA95A1
:10496000E1F7840F951F181619060CF079C030E096
:104970002052310985E0829F2001839F500C112431
:104980005B016B011C8292012B5D3B4F2901461A92
:10499000570A3C81353031F0F201EA0DFB1D44919C
:1049A0004B8301C01B827A82698213011E828B8134
:1049B00080FF13C0AB85BC85ED91FC91BD81B1300A
:1049C00031F40480F581E02D2F81388519C00088ED
:1049D000F189E02DEF80F8841EC0E985FA852F81EA
:1049E0003885E217F307F9F0AB85BC85ED91FC91B2
:1049F000BD81B13059F40480F581E02D29853A85D7
:104A0000A101B5018B859C8509950DC00088F189B0
:104A1000E02DE984FA848401940149815A81B60128
:104A20008B859C850995EB81E695EB83FE81FF5F85
:104A3000FE8329813A81280D391D3A8329833FEF6E
:104A4000231A330AF83009F0B2CF4C814F5F4C8300
:104A5000C80CD91C8FEFA81AB80A463009F099CFB4
:104A60002C96E2E10C94D82ECF92EF92FF920F9306
:104A70001F93CF93DF93EC01262F6A3049F42C89E2
:104A80008E859F8538E0239F800D911D112432C0B3
:104A90006D30A1F1EA88FB88088919894E855F8508
:104AA0006C857D85CC880E9480242C89422F50E023
:104AB0008C859D8536E0239F800D911D11249D8757
:104AC0008C872E892223D1F06AEF64039001659FC1
:104AD000300D112468857985260F371F281739076F
:104AE0006CF4F3E0440F551FFA95E1F78E859F852E
:104AF000840F951F9F878E871D861C8681E090E01E
:104B0000DF91CF911F910F91FF90EF90CF9008957B
:104B1000FC0175876487578746870895611101C036
:104B200061E0FC01648B0895FC01718B608B738BD9
:104B3000628B0895FC01718B608B538B428B0895BF
:104B4000FC0185898370858B0895FC0180859185A2
:104B50000895FC01828593850895A0E0B0E0E3EB21
:104B6000F5E20C94C62E7C018B01EA01690177FD08
:104B700081C00E94A525081719070CF07BC0D7FD3E
:104B800079C0C7010E94A925C817D9070CF072C0C7
:104B9000C7010E94A025823009F060C0F70184811E
:104BA00095819C01201B310B8901015011098681DF
:104BB0009781FC01EC1BFD0BEF0121970BC08130AD
:104BC00049F4F701848195818C1B9D0BE8018C01D0
:104BD00001501109F1E0CF16D104F9F4FE01D7FD1F
:104BE000379623E0F595E7952A95E1F7F695FE2FA0
:104BF000EE27F795E795E00FF11FE65FFE4FCE0138
:104C000068E070E00E946D2E21E030E001C0220FCC
:104C10008A95EAF78081822B1FC0FE01D7FD379667
:104C200083E0F595E7958A95E1F7F695FE2FEE2757
:104C3000F795E795E00FF11FE65FFE4FCE0168E0C4
:104C400070E00E946D2E21E030E001C0220F8A95B5
:104C5000EAF720958081822380830CC0833009F09D
:104C6000AECFF70186819781801B910B8E01EC01FD
:104C70002197B0CFCDB7DEB7E8E00C94E22EDC018F
:104C8000ED91FC910190F081E02D09950895EF924E
:104C90000F93FC011382128282ED93E09183808353
:104CA000E48E038F228F418F608F0F91EF900895D4
:104CB00080E092E0EAE0F1E0DF019C011D922150EA
:104CC0003040E1F70895FC0188E090E030E8A78DDE
:104CD000B0A14C9126A1209524232C93A58DB68DAF
:104CE00025A1432F462321F04C91422B4C9304C025
:104CF0004C91209524232C93A78DB0A12C9146A1F3
:104D0000242B2C9336950197009709F708951F934C
:104D1000CF93DF93EC01162F888D8F3FF1F0E9A13F
:104D2000FAA180819FA1892B8083EBA1FCA19081B6
:104D300088A5809589238083E9A1FAA190818FA11C
:104D4000809589238083CE010E946326E9A1FAA180
:104D500080819FA1892B808317C08F89682F772737
:104D600067FD709581E797E00E94212960E081E767
:104D700097E00E94CC28612F81E797E00E94CC2821
:104D800081E797E00E943729DF91CF911F91089525
:104D90000F931F93CF93DF93EC01162F042F40E264
:104DA00050E060E870E00E9447230F8B888D8F3FB2
:104DB00009F468C061E00E944E1D61E0898D0E9487
:104DC0004E1D61E08A8D0E944E1D61E08C8D0E9417
:104DD0004E1D898D992787FD9095FC01E95AFC4F5E
:104DE000E491F0E0EE0FFF1FEB58FC4F259134915A
:104DF00038A32F8FFC01ED5BFC4F84918EA3888D2F
:104E0000992787FD9095FC01E95AFC4FE491F0E069
:104E1000EE0FFF1FEB58FC4F259134913E8F2D8FE5
:104E2000FC01ED5BFC4F84918DA38C8D992787FD50
:104E30009095FC01E95AFC4FE491F0E0EE0FFF1F62
:104E4000EB58FC4F259134913AA329A3FC01ED5B6B
:104E5000FC4F84918FA38A8D992787FD9095FC0143
:104E6000E95AFC4FE491F0E0EE0FFF1FEB58FC4FC6
:104E7000259134913CA32BA3FC01ED5BFC4F849165
:104E800088A704C081E797E00E940C2961E08B8D20
:104E90000E944E1D61E08B8D0E94871D61E070E0D5
:104EA00080E090E00E94A41C60E08B8D0E94871D32
:104EB0006AE070E080E090E00E94A41C61E08B8DCD
:104EC0000E94871D6EEACE010E94872665EDCE0105
:104ED0000E94872660E8CE010E94872668EACE01FC
:104EE0000E9487266FE1CE010E94872663EDCE01E6
:104EF0000E94872660E0CE010E94872660E4CE01F2
:104F00000E9487266DE8CE010E948726113011F499
:104F100060E101C064E1CE010E94872660E2CE011B
:104F20000E94872660E0CE010E94872661EACE01BA
:104F30000E94872668ECCE010E9487266AEDCE018A
:104F40000E94872662E0CE010E94872661E8CE019A
:104F50000E9487266FE8CE010E94872669EDCE0168
:104F60000E948726113011F462E201C061EFCE0188
:104F70000E9487266BEDCE010E94872660E4CE0159
:104F80000E94872664EACE010E94872666EACE0147
:104F90000E9487266FEACE010E948726DF91CF917B
:104FA0001F910F910895662311F067EA01C066EA28
:104FB0000E9487260895A0E0B0E0E1EEF7E20C94AD
:104FC000C72EEC0160E00E94872660E1CE010E94BE
:104FD000872660E4CE010E948726888D8F3F89F165
:104FE000E9A1FAA180819FA1892B8083EBA1FCA17B
:104FF000808198A5892B8083E9A1FAA190818FA156
:105000008095892380830AE011E0F80161918F0186
:10501000CE010E946326F3E00A301F07B1F700E0DB
:1050200012E060E0CE010E946326015011090115D3
:105030001105B9F7E9A1FAA180819FA1892B80838D
:1050400054C0D090B8008CE08093B8000AE011E022
:105050006F89772767FD709581E797E00E94212986
:1050600060E470E081E797E00E943F26E12CF12C9C
:10507000F801EE0DFF1D608181E797E00E94CC28CA
:105080008FEFE81AF80AE0E1EE16F10489F781E7FC
:1050900097E00E943729005F1F4FF3E00A301F0797
:1050A000B9F600E210E06F89772767FD709581E718
:1050B00097E00E94212960E470E081E797E00E9478
:1050C0003F26E0E1FE2E60E081E797E00E94CC28D9
:1050D000FA94C9F781E797E00E9437290150110936
:1050E0000115110501F7D092B800CDB7DEB7E7E0A2
:1050F0000C94E32E8091A10790E02091A207821BDF
:10510000910908952091A2078091A107281750F4D2
:10511000E22FF0E0ED55F84F808190E02F5F209373
:10512000A20708958FEF9FEF0895E091A207809165
:10513000A107E81730F4F0E0ED55F84F808190E0DA
:1051400008958FEF9FEF08950895A0E0B0E0EBEA97
:10515000F8E20C94C62E7C01CB018A0120917D07D8
:10516000222389F0EB016B01C40ED51ECC15DD05A1
:1051700069F06991D701ED91FC910190F081E02DEA
:10518000C7010995F3CF642F0E94B129C801CDB79B
:10519000DEB7E8E00C94E22EA1E0B0E0E2EDF8E248
:1051A0000C94CC2E698320917D072223D1F020918D
:1051B0007E07203240F021E030E0FC01338322837F
:1051C00080E090E015C080917F07E82FF0E0E05884
:1051D000F84F998190838F5F80937F0780937E073C
:1051E00005C061E0CE0101960E94B12981E090E006
:1051F0002196E2E00C94E82EFC011382128248EE24
:1052000053E060E070E0448355836683778388EEE3
:1052100093E09183808308951092A2071092A107D2
:1052200010927F0710927E070E944029089581E026
:1052300080937D076093A00710927F0710927E07EE
:1052400008950E94172908950F93062F21E0409199
:105250007E0760E877E08091A0070E945E291092A7
:105260007F0710927E0710927D070F91089561E0ED
:105270000E942429089581E797E00E94FC28089560
:105280001092300881E080932E0810922D0861E082
:1052900082E10E94871D61E083E10E94871DE9EBA6
:1052A000F0E080818E7F808380818D7F808380E2AB
:1052B0008093B80085E48093BC0008950F93413239
:1052C00008F046C0909130089111FCCF92E0909385
:1052D000300800932E089FEF9093C30710920808A0
:1052E00040930708FB0169E078E0DB019A2F961BE9
:1052F000941718F491919D93F9CF10922F089091E3
:105300002F08880F892B80932F0880912D088130DA
:1053100041F410922D0880912F088093BB0085ECFA
:1053200001C085EE8093BC00222321F080913008DB
:105330008230E1F38091C3078F3F61F08091C30712
:10534000803251F08091C307803341F483E007C07D
:1053500081E005C080E003C082E001C084E00F91DD
:105360000895613298F420913008243089F46093D4
:10537000E507FC0187EE97E0DC012A2F281B2617A2
:1053800018F421912D93F9CF80E0089581E00895DC
:1053900082E0089585ED8093BC008091BC0084FD7F
:1053A000FCCF10923008089585EC8093BC001092D9
:1053B000300808951F920F920FB60F9211242F9369
:1053C0003F934F935F936F937F938F939F93AF938D
:1053D000BF93EF93FF938091B900887F803609F4E3
:1053E0009CC068F5883209F45BC090F4803109F400
:1053F00054C038F4882309F4F5C0883009F44DC04E
:10540000F5C0883109F44CC0803209F45DC0EEC0AB
:10541000803409F468C048F4803309F455C08833F7
:1054200009F0E4C08093C307A8C0803509F44FC0D9
:10543000883509F45DC0883409F0D8C0D5C08839F2
:1054400009F4C6C0A8F4883709F467C038F4883670
:1054500009F463C0803709F460C0C8C0883809F413
:10546000B7C0803909F45FC0803809F0BFC05BC0A5
:10547000803B09F485C038F4803A09F466C0883A64
:1054800009F47EC0B3C0803C09F4A6C0883C09F48E
:10549000A3C0883B09F489C0A9C080912F0810C01F
:1054A0009091080880910708981770F5E091080816
:1054B00081E08E0F80930808F0E0E75FF74F80816E
:1054C0008093BB0085EC85C08093C3078DC0E091BD
:1054D000080881E08E0F809308088091BB00F0E0FF
:1054E000E75FF74F808390910808809107086DC0AF
:1054F000E091080881E08E0F809308088091BB003E
:10550000F0E0E75FF74F808380912E0881116CC037
:1055100081E080932D0884EA60C083E080933008A6
:105520001092C407CFCF8091C407803208F050C0DA
:10553000E091C40781E08E0F8093C4078091BB0087
:10554000F0E0EB53F84F8083BDCF8091C4078032E9
:1055500030F4E091C407F0E0EB53F84F10820E9462
:10556000CA296091C40770E0E0912908F0912A08E7
:1055700085EC97E009951092C4070E94D42936C0A3
:1055800084E0809330081092E6071092E507E091DE
:105590002B08F0912C0809958091E507811105C031
:1055A00081E08093E5071092E707E091E60781E04C
:1055B0008E0F8093E607F0E0E951F84F80818093E9
:1055C000BB009091E6078091E507981708F47ACF21
:1055D00085E88093BC000AC085EC8093BC001092E3
:1055E000300804C01092C3070E94CA29FF91EF91AE
:1055F000BF91AF919F918F917F916F915F914F91EB
:105600003F912F910F900FBE0F901F9018955058FB
:10561000BB27AA270ED027C2F0D130F0F5D120F059
:1056200031F49F3F11F41EF4C0C10EF4E095E7FB86
:10563000B6C1E92F3AD280F3BA176207730784071D
:10564000950718F071F49EF552C20EF4E0950B2EFA
:10565000BA2FA02D0B01B90190010C01CA01A001C4
:105660001124FF27591B99F0593F50F4503E68F11F
:105670001A16F040A22F232F342F4427585FF3CF60
:10568000469537952795A795F0405395C9F77EF431
:105690001F16BA0B620B730B840BBAF09150A1F07A
:1056A000FF0FBB1F661F771F881FC2F70EC0BA0F00
:1056B000621F731F841F48F4879577956795B79588
:1056C000F7959E3F08F0B3CF9395880F08F0992780
:1056D000EE0F97958795089590D158F080E891E066
:1056E00009F49EEF91D128F040E851E059F45EEFC3
:1056F00009C05BC1FCC1E92FE078D7D168F3092E5E
:10570000052AC1F3261737074807590738F00E2E28
:1057100007F8E02569F0E025E0640AC0EF6307F8C8
:10572000009407FADB01B9019D01DC01CA01AD015A
:10573000EF934AD098D10AD05F91552331F02BEDE9
:105740003FE049E450FD49EC63CF0895DF93DD2746
:10575000B92FBF7740E85FE31616170648075B07C7
:1057600010F4D92FCFD19F938F937F936F937CD2D7
:10577000EAEBF0E01DD177D12F913F914F915F91EE
:10578000D4D1DD2349F09058A2EA2AED3FE049EC5C
:105790005FE3D0785D274DDFDF9165C1DCD008F491
:1057A00081E0089539D1E3956FC10CD05CC12CD153
:1057B00040F023D130F021F45F3F19F0F0C05111D7
:1057C00097C1F3C072D198F39923C9F35523B1F36C
:1057D000951B550BBB27AA2762177307840738F060
:1057E0009F5F5F4F220F331F441FAA1FA9F333D0BF
:1057F0000E2E3AF0E0E830D091505040E695001C73
:10580000CAF729D0FE2F27D0660F771F881FBB1F2E
:10581000261737074807AB07B0E809F0BB0B802D08
:10582000BF01FF2793585F4F2AF09E3F510568F054
:10583000B6C05EC15F3FECF3983EDCF3869577958A
:105840006795B795F7959F5FC9F7880F911D969556
:10585000879597F90895E1E0660F771F881FBB1FB2
:10586000621773078407BA0720F0621B730B840B5F
:10587000BA0BEE1F88F7E095089504D06894B11133
:1058800037C108951AD188F09F5790F0B92F992702
:10589000B751A0F0D1F0660F771F881F991F1AF03B
:1058A000BA95C9F712C0B13081F021D1B1E00895A5
:1058B0001EC1672F782F8827B85F39F0B93FCCF326
:1058C000869577956795B395D9F73EF49095809531
:1058D000709561957F4F8F4F9F4F0895E89409C051
:1058E00097FB3EF490958095709561957F4F8F4F13
:1058F0009F4F9923A9F0F92F96E9BB279395F69529
:10590000879577956795B795F111F8CFFAF4BB0FA6
:1059100011F460FF1BC06F5F7F4F8F4F9F4F16C00A
:10592000882311F096E911C0772321F09EE8872F94
:10593000762F05C0662371F096E8862F70E060E050
:105940002AF09A95660F771F881FDAF7880F9695C9
:10595000879597F90895990F0008550FAA0BE0E86D
:10596000FEEF16161706E807F907C0F01216130621
:10597000E407F50798F0621B730B840B950B39F461
:105980000A2661F0232B242B252B21F408950A26C7
:1059900009F4A140A6958FEF811D811D089597F907
:1059A0009F6780E870E060E008959FEF80EC0895C5
:1059B000DF93CF931F930F93FF92EF92DF927B01C0
:1059C0008C01689405C0DA2EEF01AFD0FE01E89497
:1059D000A5912591359145915591AEF3EF0129DEC1
:1059E000FE019701A801DA9479F7DF90EF90FF901C
:1059F0000F911F91CF91DF91089500240A941616FC
:105A0000170618060906089500240A9412161306AC
:105A1000140605060895C9CF50D0E8F3E894E0E0F5
:105A2000BB279F57F0F02AED3FE049EC06C0EE0F90
:105A3000BB0F661F771F881F28F0B23A62077307F3
:105A4000840728F0B25A620B730B840BE3959A9586
:105A500072F7803830F49A95BB0F661F771F881F46
:105A6000D2F7904806C1092E0394000C11F4882344
:105A700052F0BB0F40F4BF2B11F460FF04C06F5F06
:105A80007F4F8F4F9F4F0895EF93E0FF06C0A2EA2C
:105A90002AED3FE049EC5FEBCCDDE5DF0F900394AE
:105AA00001FC9058E7EEF0E0F7C057FD9058440F26
:105AB000551F59F05F3F71F04795880F97FB991F6D
:105AC00061F09F3F79F0879508951216130614062A
:105AD000551FF2CF4695F1DF08C0161617061806B7
